:03000000020006F5
:0300650002000393
:0300030002076F82
:100068009000007401F0900000E0FF14F0EF70F6CB
:1000780022D2B4D2B3120068A2B4E433FFC2B3C030
:1000880007120068D007EFB401009200E433F5824C
:1000980022120079E582B401009201E433F582224C
:1000A800C2B4D2B3120068D2B4020068E5829000EC
:1000B80001F07E007F00900001E025E0F0A2D792D9
:1000C800B4D2B3C007C006120068C2B3120068D029
:1000D80006D0070EBE00010FC3EE9408EF648094AB
:1000E8008040D3020079D2B4D2B3120068C2B412ED
:1000F8000068C2B31200687582781200B402006802
:10010800900002E4F0D2B47E007F00900002E02567
:10011800E0F0D2B3C007C006120068D006D007309E
:10012800B408900002E043E001F0C2B3C007C00683
:10013800120068D006D0070EBE00010FC3EE940867
:10014800EF6480948040C4900002E0F58222E5824A
:10015800900003F07582801200B4900003E0F582ED
:100168000200B47F00C0071200EE7582201201560B
:100178007582001201567582401200B4D0077E00C5
:10018800758200C007C0061200B4D006D0070EBEA4
:10019800800040ECC0071200A8D0070FBF0800403D
:1001A800C4221200EE7582AE1201567F00EF24EDD4
:1001B8004011EF900DC693F582C007120156D00783
:1001C8000F80EA1200A802016BE582900005F01288
:1001D80000EE900005E0FF24F0500FEFC4540FFF2D
:1001E8004307108F8212015680067582101201563D
:1001F800900005E0540FF582120156900004E04487
:10020800B0F5821201560200A8E582900006F012AD
:1002180000EE900006E060087582A712015680067D
:100228007582A61201560200A8E582900008F01215
:1002380000EE7582401200B4900008E0FF900007BD
:10024800E0FE7D008F037C00EB24E0FBEC34FFFC38
:10025800900068EBF0ECA3F0900005C007C006C062
:1002680005120C87AB82AC83D005D006D0078D0170
:100278007A00E92BFBEA3CFCEB24D8F582EC340D40
:10028800F583E493FCEE6015ECF4F582C007C00634
:10029800C0051200B4D005D006D00780118C82C0EA
:1002A80007C006C0051200B4D005D006D007BD04AB
:1002B80029EE60147582FFC007C006C0051200B49D
:1002C800D005D006D0078012758200C007C006C0CE
:1002D800051200B4D005D006D0070DBD05005003A7
:1002E80002024C0200A8AFF0AE83E58290000AF04B
:1002F800EEA3F0EFA3F0900009E0FF90000AE0FC05
:10030800A3E0FDA3E0FE8C828D838EF0120DA6FB88
:10031800602C900007EFF08B82C007C006C005C0B4
:1003280004120231D004D005D006D0070CBC00015D
:100338000D90000AECF0EDA3F0EEA3F080C8900059
:100348000AECF0EDA3F0EEA3F022E58290000EF0A7
:10035800E0FF900004F0758200C0071201D1D007B9
:1003680090000DE0FE8F058E037C008D017A00E978
:100378002BFBEA3CFC8F017A00C3E99BEA64808C82
:10038800F063F08095F0400122C007C006C0051256
:1003980000EE758220120156758200120156758290
:1003A80010120156D005D006D00774B04FF582C0A0
:1003B80007C006C0051201567582401200B4D00568
:1003C800D006D0077C00758200C007C006C005C0F3
:1003D800041200B4D004D005D006D0070CBC8000AD
:1003E80040E4C007C006C0051200A8D005D006D05A
:1003F800070F02036FAF82AE83ADF0FC900010EFE1
:10040800F0EEA3F0EDA3F0ECA3F090001FE4F09061
:100418000010E0FCA3E0FDA3E0FEA3E0FF20E7104E
:10042800900020ECF0EDA3F0EEA3F0EFA3F080191C
:10043800900020C3E49CF0E49DA3F0E49EA3F0E4C4
:100448009FA3F090001F7401F0750801900020E050
:10045800FBA3E0FCA3E0FDA3E0FEC3EB940AEC944D
:1004680000ED9400EE94004066900052740AF0E4A7
:10047800A3F0A3F0A3F08B828C838DF0EEC006C0AE
:1004880005C004C003120A53A882D003D004D005C3
:10049800D006E5082415F582E43400F58374302885
:1004A800F090005B740AF0E4A3F0A3F0A3F08B8251
:1004B8008C838DF0EE120B93A882A983AAF0FF908B
:1004C8000020E8F0E9A3F0EAA3F0EFA3F0801BE531
:1004D800082415F582E43400F58374302BFBF09082
:1004E8000020E4F0A3F0A3F0A3F00508900020E0BA
:1004F800F5F0A3E042F0A3E042F0A3E045F060038A
:10050800020454900014E508F090001FE06010E524
:10051800082415F582E43400F583742DF08007E58E
:100528000814900014F090000FE0FF900014E0FE13
:10053800EE2415F582E43400F583E0FD900007EF22
:10054800F08D82C007C006120231D006D007DEE067
:1005580022AF82AE83ADF0FC900025EFF0EEA3F061
:10056800EDA3F0ECA3F0900034E4F0900025E0FC5B
:10057800A3E0FDA3E0FEA3E0FF20E710900035EC28
:10058800F0EDA3F0EEA3F0EFA3F08019900035C3CF
:10059800E49CF0E49DA3F0E49EA3F0E49FA3F09014
:1005A80000347401F07F01900035E0FBA3E0FCA368
:1005B800E0FDA3E0FEC3EB9410EC9400ED9400EE94
:1005C80094005003020648C007740F5BF88809C3FB
:1005D800E509940AD0075013EF242AF582E4340081
:1005E800F583AA0974302AFAF08011EF242AF582DB
:1005F800E43400F583AA0974372AFAF0C00790009A
:1006080035E0F8A3E0F9A3E0FAA3E0FFE9C4C8C421
:10061800540F68C8540FC868C8F9EAC454F049F9B7
:10062800EFC4CAC4540F6ACA540FCA6ACAFF9000FA
:1006380035E8F0E9A3F0EAA3F0EFA3F0D007803C97
:10064800C3EB940AEC9400ED9400EE94005013EF81
:10065800242AF582E43400F5838B0274302AFAF0F8
:10066800800FEF242AF582E43400F58374372BFBDE
:10067800F0900035E4F0A3F0A3F0A3F00F9000355C
:10068800E0F5F0A3E042F0A3E042F0A3E045F0601B
:10069800030205AF900029EFF0900034E0600FEFFF
:1006A800242AF582E43400F583742DF08006EF14D3
:1006B800900029F0900024E0FF900029E0FEEE244D
:1006C8002AF582E43400F583E0FD900007EFF08D11
:1006D80082C007C006120231D006D007DEE022E54C
:1006E8008290003AF07F0190003AE0FEBE0200409E
:1006F800358E047D0074015CFAEF243BF582E43406
:1007080000F58374302AF090006A7402F0E4A3F0D4
:100718008C828D83C007120CA7AC82AD83D0079062
:10072800003AECF08014EF243BF582E43400F583C2
:1007380074302EFEF090003AE4F00FBF090040A795
:100748001F900039E0FEEF243BF582E43400F58386
:10075800E0FD900007EEF08D82C007C0061202315E
:10076800D006D007DFE022120865759E04439D027B
:10077800539DFD43C604439D04539DDF4396184390
:100788009718D2B4D2B39000641208B41201AA9098
:100798000004E4F07582001201D1900009E4F090A1
:1007A800123875F0801202EE900077E4F09000772E
:1007B800E0F59C9000047403F07582001201D1905A
:1007C8000009E4F090124775F0801202EE9000776D
:1007D800E0FF7E007D007C0090000FE4F08F828EA9
:1007E800838DF0EC1203FD900009E4F090124D7532
:1007F800F0801202EE900077E02401F0E0FFBFFFE6
:100808000040AA90007774FFF0900077E0F59C9084
:1008180000047403F07582001201D1900009E4F01D
:1008280090124775F0801202EE900077E0FF7E008C
:100838007D007C0090000FE4F08F828E838DF0ECB9
:100848001203FD900009E4F090124D75F080120239
:0D085800EE900077E014F0E070AF0207B002
:100DC600A83FD30040A1C8DA1281F0A4A6D5808D31
:100DD60014AF000000000000002F0000000700070D
:100DE60000147F147F14242A7F2A12C4C8102646B2
:100DF60036495522500005030000001C2241000020
:100E060041221C0014083E081408083E0808000089
:100E16005030001010101010006060000020100804
:100E260004023E5149453E00427F4000426151491D
:100E3600462141454B311814127F10274545453947
:100E46003C4A494930017109050336494949360684
:100E56004949291E0036360000005636000008149F
:100E660022410014141414140041221408020151E2
:100E76000906324959513E7E1111117E7F49494971
:100E8600363E414141227F4141221C7F4949494129
:100E96007F090909013E4149497A7F0808087F0010
:100EA600417F41002040413F017F081422417F409D
:100EB6004040407F020C027F7F0408107F3E414184
:100EC600413E7F090909063E4151215E7F091929E4
:100ED60046464949493101017F01013F4040403FB3
:100EE6001F2040201F3F4038403F6314081463070B
:100EF600087008076151494543007F414100552A62
:100F0600552A550041417F00040201020440404039
:100F16004040000102040020545454787F48444461
:100F2600383844444420384444487F38545454188C
:100F3600087E0901020C5252523E7F0804047800D2
:100F4600447D40002040443D007F1028440000417D
:100F56007F40007C041804787C08040478384444F4
:100F660044387C14141408081414187C7C080404EF
:100F7600084854545420043F4440203C4040207CC0
:100F86001C2040201C3C4030403C44281028440C87
:100F96005050503C4464544C440008364100000014
:100FA6007F00000041360800040204080400000027
:100FB600000000000000000000000000000000002B
:100FC600000000000000000000000000000000001B
:100FD600000000000000000000000000000000000B
:100FE60000000000000000000000000000000000FB
:100FF60000000000000000000000000000000000EB
:1010060000000000000000000000000000000000DA
:1010160000000000000000000000000000000000CA
:1010260000000000000000000000000000000000BA
:1010360000000000000000000000000000000000AA
:10104600000000000000000000000000000000009A
:10105600000000000000000000000000000000008A
:10106600000000000000000000000000000000007A
:101076000000360000000000000000000000000034
:10108600000000003E49494922000000000000001F
:101096000000000000000000000000000044457C45
:1010A60045440609090600000000000000417F4192
:1010B6000000447D40000000000000000000000029
:1010C600000000000000000000000000000000001A
:1010D6000000000038544428000000000000000012
:1010E600000000000000000000000000004A487AEE
:1010F60040407E1111117E7F494949317F49494956
:10110600367F01010103603E21217F7F4949494124
:1011160063147F146322494949367F1008047F7F90
:101126001009047F7F081422417C0201017F7F029F
:101136000C027F7F0808087F3E4141413E7F010146
:10114600017F7F090909063E4141412201017F01D4
:1011560001074848483F1C227F221C631408146379
:101166003F20203F60070808087F7F407F407F3F81
:10117600203F207F017F4848307F4848307F7F48A6
:10118600484830224949493E7F083E413E46291992
:10119600097F205454547878545454207C54545421
:1011A600287C0404040060382438603854545418E9
:1011B6006C107C106C28445454283C4040207C3CE5
:1011C6004042207C7C10102844601008047C7C0877
:1011D60010087C7C1010107C38444444387C04048D
:1011E600047C7C14141408384444442004047C040D
:1011F600040C5050503C18247C24184428102844D1
:101206003C20203C600C1010107C7C407C407C3CD8
:10121600203C207C047C4848307C4830007C7C485C
:1012260048483028445454387C10384438582424CC
:10123600247C43483535322D3E53534431333036C2
:0E12460000436F756E74002020200000000031
:06005F00750A00750B3864
:1008650075A15575A1AA74F855B94406F5B975A1D0
:100875000022AF83E582900043F0EFA3F0900043A0
:10088500E0FEA3E0FFEE4F601D05A105A105A10552
:10089500A105A105A105A11EBEFF011F900043EE04
:1008A500F0EFA3F080DF900043EEF0EFA3F022AF6E
:1008B50083E582900045F0EFA3F0900045E0FEA3AC
:1008C500E0FFEE4F601D9003E8C007C006120877F1
:1008D500D006D0071EBEFF011F900045EEF0EFA326
:1008E500F080DF900045EEF0EFA3F02243C6102222
:1008F500C29FD29EC29DC2CDC2CC43878090004785
:10090500741AF07406A3F0E4A3F0A3F0900047E096
:10091500FCA3E0FDA3E0FEA3E0FF900052740AF003
:10092500E4A3F0A3F0A3F08C828D838EF0EF120A7E
:1009350053AC8290004BECF0900047E0FCA3E0FD47
:10094500A3E0FEA3E0FF90005B740AF0E4A3F0A32C
:10095500F0A3F08C828D838EF0EF120B93AC82ADF9
:1009650083AEF0FF900047ECF0EDA3F0EEA3F0EFBF
:10097500A3F090004BE0FFBF05004021900047E049
:10098500FCA3E0FDA3E0FEA3E0FF90004774012C6B
:10099500F0E43DA3F0E43EA3F0E43FA3F0740F556B
:1009A500894420F58943C9A0900047E0FCA3E0A352
:1009B500E0A3E0C3E49CF58DD28ED299D29C22109F
:1009C500980280FB85998222E58290004CF0E0F543
:1009D5009910990280FB22AF83E58290004DF0EFDC
:1009E500A3F010990280FB90004DE0FEA3E0FF8E7E
:1009F500998E828F832210980280FBAE997F008E9C
:100A0500828F8322C2C7D2C5D2C475C2642210C0E8
:100A15000280FB85C18222E58290004FF0E0F5C19E
:100A250030C1FDD2C122E582900050F075A1557507
:100A3500A1AAE0600543B101800353B1FE75A10091
:100A450075FF0022E582900051F0E0F5FF22AF82AC
:100A5500AE83ADF0FC900056EFF0EEA3F0EDA3F001
:100A6500ECA3F090005AE4F0900056E0FCA3E0FD02
:100A7500A3E0FEA3E0FF7B00900052E0F50CA3E0AD
:100A8500F50DA3E0F50EA3E0F50F235401FA7074FC
:100A9500C003E50C250CF8E50D33F9E50E33FAE551
:100AA5000F33FB900052E8F0E9A3F0EAA3F0EBA3C3
:100AB500F0900052E0F50CA3E0F50DA3E0F50EA3D0
:100AC500E0F50FC3EC950CED950DEE950EEF950F3A
:100AD500D0035027E50FC313F50FE50E13F50EE50B
:100AE5000D13F50DE50C13F50C900052F0E50DA373
:100AF500F0E50EA3F0E50FA3F080090B90005AEB8B
:100B0500F0020A7D90005AE0FF900056E0FBA3E05A
:100B1500FCA3E0FDA3E0FE900052E0F50CA3E0F598
:100B25000DA3E0F50EA3E0F50FC3EB950CEC950DC9
:100B3500ED950EEE950F4017900056EBC3950CF012
:100B4500EC950DA3F0ED950EA3F0EE950FA3F090A7
:100B55000052E0FBA3E0FCA3E0FDA3E0C313FEED20
:100B650013FDEC13FCEB13900052F0ECA3F0EDA396
:100B7500F0EEA3F08F061FEE708F900056E0FCA3F9
:100B8500E0FDA3E0FEA3E08C828D838EF022AF8290
:100B9500AE83ADF0FC90005FEFF0EEA3F0EDA3F0B7
:100BA500ECA3F0900063E4F0A3F0A3F0A3F09000B1
:100BB5005BE0FCA3E0FDA3E0FEA3E0FF7B20C00318
:100BC50090005FE0F8A3E0F9A3E0FAA3E0FB900052
:100BD50067235401F0E828F8E933F9EA33FAEB33EF
:100BE500FB90005FE8F0E9A3F0EAA3F0EBA3F09037
:100BF5000063E0F8A3E0F9A3E0FAA3E0FBE828F836
:100C0500E933F9EA33FAEB33FB900063E8F0E9A343
:100C1500F0EAA3F0EBA3F0D003900067E060089042
:100C25000063E043E001F0900063E0F50CA3E0F51C
:100C35000DA3E0F50EA3E0F50FC3E50C9CE50D9DB6
:100C4500E50E9EE50F9F401F900063E50CC39CF0E9
:100C5500E50D9DA3F0E50E9EA3F0E50F9FA3F09093
:100C6500005FE043E001F01BEB6003020BC3900063
:100C75005FE0FCA3E0FDA3E0FEA3E08C828D838E04
:020C8500F0225B
:06003500E478FFF6D8FD9F
:100013007903E94400601B7A01901251787575A049
:1000230000E493F2A308B8000205A0D9F4DAF2754C
:02003300A0FF2C
:100C8700AA83AB828BF0900068E0A4F8A9F08AF001
:100C9700E0A429F98BF0A3E0A429F5838882222216
:10003B007800E84400600A790075A000E4F309D861
:10004B00FC7875E84400600C7901900000E4F0A3A3
:04005B00D8FCD9FAFA
:100CA700AF83E58290006CF0EFA3F090006CE0FE5C
:100CB700A3E0FF30E709C3E49EFCE49FFD80048EB8
:100CC700048F0590006AE0FEA3E0FF33E433FB6086
:100CD70009C3E49EF9E49FFA80048E018F02900015
:100CE7006EE9F0EAA3F08C828D83C003120D19AE72
:100CF70082AF83D00390006CE0A3E033E4336B60F2
:100D07000CC3E49EFCE49FFD8C828D83228E828F30
:100D17008322AF83E582900070F0EFA3F09000721A
:100D2700E4F0A3F090006EE0FEA3E0FF7D109000DA
:100D370070E0FBA3E0FC900074235401F0EB2BFB65
:100D4700EC33FC900070EBF0ECA3F0900072E0FB4A
:100D5700A3E0FCEB2BFBEC33FC900072EBF0ECA375
:100D6700F0900074E06008900072E043E001F090BA
:100D77000072E0FBA3E0FCC3EB9EEC9F40139000E6
:100D870072EBC39EF0EC9FA3F0900070E043E0018C
:0F0D9700F0DD9B900070E0FEA3E08E82F58322DA
:0D000600758120120DC2E582600302000327
:100DA60020F71430F6148883A88220F507E6A88376
:100DB60075830022E280F7E49322E0227582002206
:00000001FF
